:020000040000FA
:04000000FEEF17F008
:10130E00C58AC5881200C586B6EC09F01200C582E2
:10131E00B6EC09F01200C580B6EC09F01200C584D7
:10132E00B6EC09F012008AEC09F087EC09F0C9500E
:10133E001200016E01C0C9FFB6EC09F012009486CE
:10134E009488280EC66E310EC86E9E961200B70E89
:10135E00036E046AC00E056EACEC0BF012009EA676
:10136E00BBEF09F0BDEF09F0B6EF09F09E96120043
:10137E000F0EC16E1E0E936EF19E8150E009816EAE
:10138E001200096E000E016E085043EC0AF0010EB9
:10139E00016E095043EC0AF01200016E9EA8DAEFBE
:1013AE0009F0DCEF09F0D5EF09F09E9801C0ADFF12
:1013BE001200C08EC094C082C090C08AC098C096E1
:1013CE00C46AC36AC292C2801200BFEC09F038EC44
:1013DE000DF0E0EC09F009EC0AF0A6EC09F060EC77
:1013EE000AF0546A1200096E92EC09F0D00EA0ECCD
:1013FE0009F00950A0EC09F00850A0EC09F096ECA9
:10140E0009F01200948E949CAC9CAC8AAC98AC966D
:10141E00AC84AB8EAB9CAB88B896810EAF6E9E98AB
:10142E009E9A1200026E92EC09F0D00EA0EC09F01A
:10143E000250A0EC09F08EEC09F0D10EA0EC09F0F0
:10144E009AEC09F0036E96EC09F003501200026E4E
:10145E0092EC09F0A00EA0EC09F00250A0EC09F0FD
:10146E008EEC09F0A10EA0EC09F09AEC09F0036ED7
:10147E0096EC09F003501200026E01B049EF0AF02B
:10148E004CEF0AF082824DEF0AF0829202C083FF87
:10149E0082848294958E828082928284829483BE8C
:1014AE005BEF0AF05DEF0AF054EF0AF08290959E22
:1014BE001200000E19EC0AF00A6E0A508009086E2E
:1014CE00000EFAEC09F0020E19EC0AF00A6E0A5040
:1014DE00BF0B086E020EFAEC09F0000E19EC0AF0C2
:1014EE000A6E0A507F0B086E000EFAEC09F012001D
:1014FE000B6E92EC09F0A00EA0EC09F00B50A0ECD4
:10150E0009F00850A0EC09F096EC09F00B0E0A6EEB
:10151E00B80E096E0906D8A00A06092806E10A289F
:10152E00D8A49CEF0AF09EEF0AF091EF0AF0120099
:10153E00076E07C003F0D8900336D8900336C2501A
:10154E00C30B0310C26EC282C2B2B0EF0AF0B2EF8A
:10155E000AF0ABEF0AF0C450046E036AC350056E76
:10156E00066A035005103F6E04500610406E3FC0D1
:10157E0001F040C002F01200940EF66E160EF76ED9
:10158E00000EF86E00EE60F010EE60F00900F5CF80
:10159E00EEFFE550E150FAE1000EF66E300EF76EFA
:1015AE00000EF86E0900F5CF5EF001EE00F0960E1B
:1015BE00EE6AE806FDE100EE3CF0220EEE6AE80669
:1015CE00FDE1000EF86E00018BEF0DF0020E19EC2E
:1015DE000AF03C6E010E19EC0AF03D6E000E19EC8D
:1015EE000AF03E6E3C380F0B030B300F0001B76F45
:1015FE003C500F0B300FB86F3A0EB96F3D380F0BD2
:10160E000F0B300FBA6F3D500F0B300FBB6F3A0EF2
:10161E00BC6F3E380F0B0F0B300FBD6F3E500F0BD4
:10162E00300FBE6FBF6B120031EF0BF002C0F6FF32
:10163E0003C0F7FFF86A050EF76403D00800F550F3
:10164E0005D0F6CFE9FFF7CFEAFFEF50D4EC09F063
:10165E00024A032A02C0F6FF03C0F7FFF86A050E1E
:10166E00F76403D00800F55005D0F6CFE9FFF7CFA9
:10167E00EAFFEF500009D8A447EF0BF049EF0BF04B
:10168E001DEF0BF0120056696577204C6F67000056
:10169E000000000000436C656172204C6F67000013
:1016AE0000000000446F776E6C6F6164204C6F67B2
:1016BE000000005345542054494D450000000000E1
:1016CE0000004F4E00474E0047310047320047336F
:1016DE0000473400473500475200435F0030303A30
:1016EE0030303A30300003500410D8B481EF0BF094
:1016FE0083EF0BF0A7EF0BF0010E056E8BEF0BF0E7
:10170E00D89003360436052A04AE90EF0BF092EF14
:10171E000BF087EF0BF00350015C04500258D8A079
:10172E009BEF0BF09DEF0BF0A1EF0BF00350015E62
:10173E000450025AD89004320332052E92EF0BF069
:10174E0001C001F002C002F01200000E016E055041
:10175E0043EC0AF0C9EF0BF0010E016E03C0F6FF69
:10176E0004C0F7FFF86A050EF76403D00800F550C1
:10177E0005D0F6CFE9FFF7CFEAFFEF5043EC0AF0C2
:10178E00034A042A03C0F6FF04C0F7FFF86A050EE9
:10179E00F76403D00800F55005D0F6CFE9FFF7CF78
:1017AE00EAFFEF500009D8A4DFEF0BF0E1EF0BF0EA
:1017BE00B3EF0BF01200016E0104D8A4E9EF0BF0A9
:1017CE00EBEF0BF00EEF0CF086EC0EF0536E532891
:1017DE00D8B4F4EF0BF0F6EF0BF002EF0CF05E5016
:1017EE00D8B4FCEF0BF0FEEF0BF002EF0CF05E6ADC
:1017FE0053501BEF0CF05328D8A408EF0CF00AEF4F
:10180E000CF01AEF0CF0010E5E6E1AEF0CF0015098
:10181E00D8A414EF0CF016EF0CF01AEF0CF086ECC7
:10182E000EF01BEF0CF0FF0E1200000E066E000EF7
:10183E00056E03500410D8B427EF0CF029EF0CF00E
:10184E0051EF0CF0010E076E31EF0CF0D89003360D
:10185E000436072A04AE36EF0CF038EF0CF02DEFFD
:10186E000CF0D890053606360350015C0450025831
:10187E00D8A044EF0CF046EF0CF04BEF0CF00350F9
:10188E00015E0450025A0580D89004320332072EAE
:10189E0038EF0CF005C001F006C002F012005B50EC
:1018AE00D8A45CEF0CF05EEF0CF083EF0CF0010EA1
:1018BE005B6ED10E036E2F0E046E820E056EACECB7
:1018CE000BF0000E4C6E000E4B6E5D6A1A0E076E1C
:1018DE005E0E066E6E0EE82EFED7062EFCD7072E77
:1018EE00FAD700D0000E016E010E43EC0AF05A6AD0
:1018FE00010E546E9EEF0CF0DD0E036E2F0E046E75
:10190E00820E056EACEC0BF01A0E076E5E0E066EB6
:10191E006E0EE82EFED7062EFCD7072EFAD700D075
:10192E00000E016E010E43EC0AF07EEF0CF0120079
:10193E004C5009E10A0E4B5CD8A0A8EF0CF0AAEFB0
:10194E000CF0DEEF0CF0000E4C6E0A0E4B6E010E1C
:10195E00146E14500C0DF3505D24116E14500C0DBA
:10196E00F3505D24F40F126E136A11502EEC0AF030
:10197E000F6E112A0FC008F012507FEC0AF0122AD7
:10198E00132A0B0E1364CEEF0CF0D0EF0CF0BCEF5D
:10199E000CF0142A090E1464D7EF0CF0D9EF0CF0EA
:1019AE00B0EF0CF05D506C0F106EE5EF0CF04B507D
:1019BE000C0DF3505D24106E4B4A4C2A1050E9EC7E
:1019CE000CF012000E6E0C6A0C50B70FD96EDA6A5C
:1019DE00DF50086E0E507FEC0AF00E2A0C2A070E0E
:1019EE000C64FCEF0CF0FEEF0CF0EBEF0CF00D6A5C
:1019FE005150030DF3509C0F0D24D96EDA6ADF504F
:101A0E00086E0E507FEC0AF00E2A0D2A010E0D64A0
:101A1E0013EF0DF015EF0DF0FFEF0CF049C001F0D4
:101A2E004AC002F0000E046E0A0E036E1CEC0CF09F
:101A3E000150300F086E0E507FEC0AF00E2A49C08E
:101A4E0001F04AC002F0000E046E0A0E036E7AEC2C
:101A5E000BF00150300F086E0E507FEC0AF00E2A7C
:101A6E001200956A9450F80B946E8290C30E036E1A
:101A7E00CD0EE82EFED7032EFCD70000000E016E11
:101A8E00330E43EC0AF01B0E036E9E0EE82EFED7AD
:101A9E00032EFCD700D0000E016E330E43EC0AF07D
:101AAE00A60EE82EFED700D0000E016E330E43ECCC
:101ABE000AF000D000D00000000E016E020E43ECC2
:101ACE000AF0A60EE82EFED700D0000E016E380EDC
:101ADE0043EC0AF0A60EE82EFED700D0000E016EE3
:101AEE00010E43EC0AF0040E036E3E0EE82EFED7F6
:101AFE00032EFCD7000E016E0C0E43EC0AF0A60E60
:101B0E00E82EFED700D01200ECEC09F0EDEC0AF056
:101B1E00AE0E1A6E470E1B6E250E1C6E410E1D6EFE
:101B2E00040E9FEC0AF001C008F002C009F0000E8E
:101B3E0009BEFF0E0A6E0B6E010ECBEC10F008C044
:101B4E0016F009C017F00AC018F00BC019F0E2EC3D
:101B5E0013F016C02FF017C030F018C031F019C0B6
:101B6E0032F003EC0EF02FC049F030C04AF09FEC7B
:101B7E000CF0EDEC0AF0DCEF0DF0A5EC11F0C0EF7F
:101B8E000DF0B7EC12F0C0EF0DF094EC0FF0C0EFCB
:101B9E000DF00AEC0FF0C0EF0DF056EC0CF0C0EFAC
:101BAE000DF0AAEC15F0C0EF0DF054503A6E3B6AF2
:101BBE003B50000AD8B4E6EF0DF0C0EF0DF03A50EE
:101BCE00000AD8B4C4EF0DF0010AD8B4C8EF0DF076
:101BDE00030AD8B4CCEF0DF0010AD8B4D8EF0DF04B
:101BEE00070AD8B4D0EF0DF0010AD8B4D4EF0DF037
:101BFE00C0EF0DF0FEEF17F031343234386E38503E
:101C0E00D8A40CEF0EF00EEF0EF018EF0EF0000E43
:101C1E002F6E000E306E000E316E000E326E85EF9E
:101C2E000EF02FC033F030C034F031C035F032C07A
:101C3E0036F0200E28EF0EF0D89036323532343290
:101C4E003332E82E23EF0EF03350376E318EFF0E07
:101C5E002F16FF0E3016FF0E3116000E3216960E90
:101C6E00385E38BE3FEF0EF03DEF0EF055EF0EF042
:101C7E003850800A970FD8B047EF0EF049EF0EF0AC
:101C8E004BEF0EF00EEF0EF0D89032323132303282
:101C9E002F32383E4BEF0EF06DEF0EF01F0E386404
:101CAE005BEF0EF05DEF0EF065EF0EF00EEF0EF047
:101CBE00D8902F3630363136323638063850D8A4D2
:101CCE006BEF0EF06DEF0EF05FEF0EF03750D8B4F5
:101CDE0073EF0EF075EF0EF07DEF0EF0321E311E2B
:101CEE00301E2F6C000E3022312232222FC02FF0E8
:101CFE0030C030F031C031F032C032F01200819A73
:101D0E00818C818E81B28EEF0EF090EF0EF093EFFC
:101D1E000EF0010E09EF0FF081B498EF0EF09AEF6E
:101D2E000EF09DEF0EF0040E09EF0FF081B6A2EF4C
:101D3E000EF0A4EF0EF0A7EF0EF0070E09EF0FF066
:101D4E0081B8ACEF0EF0AEEF0EF0B1EF0EF00A0E62
:101D5E0009EF0FF0818A819C818E81B2B9EF0EF06E
:101D6E00BBEF0EF0BEEF0EF0020E09EF0FF081B4D6
:101D7E00C3EF0EF0C5EF0EF0C8EF0EF0050E09EF33
:101D8E000FF081B6CDEF0EF0CFEF0EF0D2EF0EF0DA
:101D9E00080E09EF0FF081B8D7EF0EF0D9EF0EF065
:101DAE00DCEF0EF00B0E09EF0FF0818A818C819E15
:101DBE00819E81B2E5EF0EF0E7EF0EF0EAEF0EF046
:101DCE00030E09EF0FF081B4EFEF0EF0F1EF0EF00E
:101DDE00F4EF0EF0060E09EF0FF081B6F9EF0EF0EC
:101DEE00FBEF0EF0FEEF0EF0090E09EF0FF081B8CB
:101DFE0003EF0FF005EF0FF008EF0FF00C0E09EFE9
:101E0E000FF0FF0E12005B50D8A410EF0FF012EF80
:101E1E000FF06CEF0FF0B60E036E2F0E046E820EE7
:101E2E00056EACEC0BF0A50E026E2F0E036E1BECC6
:101E3E000BF0CE0E026E2F0E036E1BEC0BF0000E8F
:101E4E00096E000E086E45EF0FF00F0E0802F3CF6D
:101E5E0006F0F4CF07F00902F3500726000E062411
:101E6E00026E010E0720036E1BEC0BF0CE0E026EFF
:101E7E002F0E036E1BEC0BF0084A092A4B50085C20
:101E8E004C500958D8A04EEF0FF050EF0FF02CEF3A
:101E9E000FF0CE0E026E2F0E036E1BEC0BF01A0E11
:101EAE00076E5E0E066E6E0EE82EFED7062EFCD761
:101EBE00072EFAD700D0000E016E010E43EC0AF089
:101ECE005A6A010E546E93EF0FF0DD0E036E2F0E55
:101EDE00046E820E056EACEC0BF0C50E026E2F0E6C
:101EEE00036E1BEC0BF0CE0E026E2F0E036E1BEC70
:101EFE000BF01A0E076E5E0E066E6E0EE82EFED7F5
:101F0E00062EFCD7072EFAD700D0000E016E010E5A
:101F1E0043EC0AF067EF0FF01200F00E036E2F0E77
:101F2E00046E820E056EACEC0BF0F80E036E2F0EE7
:101F3E00046E890E056EACEC0BF0F50E036E2F0ED3
:101F4E00046E8C0E056EACEC0BF0010EE2EC0BF099
:101F5E005C6E5C04D8A4B6EF0FF0B8EF0FF0C9EFCB
:101F6E000FF04D504E10D8B4BFEF0FF0C1EF0FF081
:101F7E00C9EF0FF0000E016E010E43EC0AF04D0694
:101F8E00D8A04E06020E5C18D8A4D0EF0FF0D2EFF8
:101F9E000FF0FBEF0FF0FF0E4B240A6EFF0E4C20DE
:101FAE000B6E0A504D5C0B504E58D8B0E1EF0FF04F
:101FBE00E3EF0FF0FBEF0FF0000E016E010E43EC9E
:101FCE000AF04E5009E10A0E4D5CD8A0F1EF0FF069
:101FDE00F3EF0FF0F9EF0FF0000E4E6E090E4D6E8F
:101FEE00FBEF0FF04D4A4E2A0C0E5C18D8A402EFF0
:101FFE0010F004EF10F00CEF10F0000E016E010E59
:10200E0043EC0AF05A6A010E546E800E086E4D5063
:10201E00300FC8EC09F00F0E4D02F3CF0AF0F4CFDB
:10202E000BF04E02F3500B26000E0A24036E010E27
:10203E000B20046EC00E056EACEC0BF01200000E01
:10204E000D6E000E0C6EBFEF10F00C0E0C02F3CFE7
:10205E0004F0F4CF05F00D02F35005265D50042474
:10206E00086E000E0520096E08C00AF009C00BF0BC
:10207E00000E0F6E000E0E6E080E0E180F10D8B456
:10208E004BEF10F04DEF10F057EF10F00B0E0E1847
:10209E000F10D8A455EF10F057EF10F070EF10F0AE
:1020AE000F0E0C02F3CF04F0F4CF05F00D02F35037
:1020BE000526000E0424066E010E0520076E0E5036
:1020CE000624D96E0F500720DA6E200EDF6EADEFAC
:1020DE0010F00E0E0E180F10D8A478EF10F07AEF45
:1020EE0010F092EF10F00F0E0C02F3CF04F0F4CFBD
:1020FE0005F00D02F3500526000E0424066E010EA7
:10210E000520076E0E500624D96E0F500720DA6E8A
:10211E00DF6AADEF10F00F0E0C02F3CF04F0F4CF28
:10212E0005F00D02F3500526000E0424066E010E76
:10213E000520076E0E500624D96E0F500720DA6E5A
:10214E000A502EEC0AF0DF6E0A4A0B2A0E4A0F2AAC
:10215E000FBEBBEF10F00F5009E10F0E0E5CD8A0B2
:10216E00BBEF10F0BDEF10F043EF10F00C4A0D2A4C
:10217E004B500C5C4C500D58D8A0C8EF10F0CAEF65
:10218E0010F02CEF10F01200106E1050D8B4D2EFE9
:10219E0010F0D4EF10F0F6EF10F00BBEDBEF10F0F6
:1021AE00D9EF10F0F6EF10F008C00CF009C00DF0EA
:1021BE000AC00EF00BC00FF00C1E0D1E0E1E0F1ED1
:1021CE000C2A000E0D220E220F220CC012F00DC092
:1021DE0013F00EC014F00FC015F0FEEF10F008C093
:1021EE0012F009C013F00AC014F00BC015F008501D
:1021FE0009100A100B10D8A407EF11F009EF11F017
:10220E0013EF11F0000E086E000E096E000E0A6E2E
:10221E00000E0B6EA4EF11F0960E116E1DEF11F065
:10222E00112AD8901532143213321232000E1214B3
:10223E000C6E000E13140D6E000E14140E6EFE0EA8
:10224E0015140F6E0C500D100E100F10D8A432EF87
:10225E0011F034EF11F017EF11F042EF11F0112AD7
:10226E00010E1226000E132214221522D8901532BA
:10227E00143213321232000E12140C6E000E13149E
:10228E000D6E000E14140E6EFF0E15140F6E0C5004
:10229E000D100E100F10D8A457EF11F059EF11F0CA
:1022AE0036EF11F061EF11F01106D8901236133699
:1022BE001436153614BE66EF11F068EF11F070EF9C
:1022CE0011F0020E11606EEF11F070EF11F05BEF76
:1022DE0011F011B075EF11F077EF11F078EF11F0FA
:1022EE00149ED890113211C00CF00D6A0E6A0F6A4E
:1022FE000CC00FF00E6A0D6A0C6A0C5012120D50C3
:10230E0013120E5014120F5015121050D8B492EF23
:10231E0011F094EF11F09CEF11F00BBE9BEF11F04A
:10232E0099EF11F09CEF11F0158E12C008F013C04A
:10233E0009F014C00AF015C00BF01200F00E036E77
:10234E002F0E046E820E056EACEC0BF0F80E036EC3
:10235E002F0E046E890E056EACEC0BF0F50E036EAF
:10236E002F0E046E8C0E056EACEC0BF0AEEC09F07D
:10237E005150030DF3509C0F396E39C003F0046AAF
:10238E00C90E056EACEC0BF0010EE2EC0BF05C6EC0
:10239E000B0E5C18D8A4D6EF11F0D8EF11F0E3EFC6
:1023AE0011F0000E506E000E4F6E5A6A26EC10F0B1
:1023BE00010E546EB6EF12F05C04D8A4E9EF11F0E2
:1023CE00EBEF11F010EF12F0080E51185210D8A4C6
:1023DE00F3EF11F0F5EF11F0FDEF11F0000E526E6C
:1023EE00010E516E9FEC0CF010EF12F0514A522A72
:1023FE00525009E1080E515CD8A008EF12F00AEF16
:10240E0012F0F9EF11F0000E526E070E516EF9EF49
:10241E0011F0020E5C18D8A417EF12F019EF12F09B
:10242E0042EF12F0080E51185210D8A421EF12F0FC
:10243E0023EF12F02BEF12F0000E526E010E516EC2
:10244E009FEC0CF042EF12F051505210D8B432EF14
:10245E0012F034EF12F042EF12F05106D8A05206ED
:10246E0051505210D8A43EEF12F040EF12F027EF69
:10247E0012F023EF12F0030E5C18D8A449EF12F0FD
:10248E004BEF12F05BEF12F0080E51185210D8B449
:10249E0053EF12F055EF12F05BEF12F0000E526E8A
:1024AE00080E516E9FEC0CF05150030DF3509C0F23
:1024BE00396E39C003F0046AC90E056EACEC0BF030
:1024CE00AE0E1A6E470E1B6E250E1C6E410E1D6E45
:1024DE00040E9FEC0AF001C008F002C009F0000ED5
:1024EE0009BEFF0E0A6E0B6E010ECBEC10F008C08B
:1024FE0016F009C017F00AC018F00BC019F0E2EC84
:10250E0013F016C02FF017C030F018C031F019C0FC
:10251E0032F003EC0EF02FC049F030C04AF0CC0E72
:10252E00086E49C001F04AC002F0000E046E0A0E99
:10253E00036E1CEC0CF00150300FC8EC09F0CD0E00
:10254E00086E49C001F04AC002F0000E046E0A0E79
:10255E00036E7AEC0BF00150300FC8EC09F012004C
:10256E005A50D8A4BDEF12F0BFEF12F0E3EF12F005
:10257E00010E5A6E000E016E010E43EC0AF04F5022
:10258E000F0DF350600F0A6E0AC003F0046A820E3C
:10259E00056EACEC0BF04F500F0DF3506F0F0A6E33
:1025AE000AC003F0046AC20E056EACEC0BF0800E8E
:1025BE00086E2A0EC8EC09F0010EE2EC0BF05C6E10
:1025CE005C04D8A4EDEF12F0EFEF12F01DEF13F054
:1025DE004F505010D8B4F6EF12F0F8EF12F01DEF86
:1025EE0013F0000E016E010E43EC0AF04F06D8A058
:1025FE0050064F500F0DF350600F0A6E0AC003F0D5
:10260E00046A820E056EACEC0BF04F500F0DF350BA
:10261E006F0F0A6E0AC003F0046AC20E056EACECB0
:10262E000BF0800E086E2A0EC8EC09F0020E5C1834
:10263E00D8A424EF13F026EF13F055EF13F05050FB
:10264E0007E1030E4F5CD8B02FEF13F031EF13F00C
:10265E0055EF13F0000E016E010E43EC0AF04F4AD7
:10266E00502A4F500F0DF350510F0A6E0AC003F04F
:10267E00046A820E056EACEC0BF04F500F0DF3504A
:10268E00600F0A6E0AC003F0046AC20E056EACEC4F
:10269E000BF0C00E086E2A0EC8EC09F00B0E5C187B
:1026AE00D8A45CEF13F05EEF13F0D1EF13F0000E31
:1026BE00016E010E43EC0AF0B3EF13F05B50D8A499
:1026CE006BEF13F06DEF13F075EF13F0000E4E6E0F
:1026DE00000E4D6E020E546ED1EF13F0DD0E036E32
:1026EE002F0E046E820E056EACEC0BF01A0E0B6EF6
:1026FE005E0E0A6E6E0EE82EFED70A2EFCD70B2E3D
:10270E00FAD700D0000E016E010E43EC0AF05A6AA1
:10271E00010E546ED1EF13F0050E546ED1EF13F07F
:10272E00040E546ED1EF13F0596A000E426E000E75
:10273E00416E000E486E000E476E000E466E000E85
:10274E00456E000E446E000E436E576A566A556A09
:10275E00030E546ED1EF13F04FC00AF050C00BF0C1
:10276E000B50000AD8B4BEEF13F0D1EF13F00A509D
:10277E00000AD8B465EF13F0010AD8B493EF13F042
:10278E00030AD8B497EF13F0010AD8B49BEF13F0F5
:10279E00D1EF13F00C0E5C18D8A4D8EF13F0DAEFCB
:1027AE0013F0E1EF13F0000E016E010E43EC0AF090
:1027BE005B6A546A12001950800B266E1950192448
:1027CE002D6E18AEEDEF13F0EFEF13F0F0EF13F0F8
:1027DE002D802D50D8B4F6EF13F0F8EF13F00CEF68
:1027EE0014F02D28D8A4FEEF13F000EF14F008EF2C
:1027FE0014F0000E166E000E176E000E186E000E00
:10280E00196E188E196A14EF14F0000E166E000E63
:10281E00176E000E186E000E196E1D50800B261AC4
:10282E001D501D242E6E1CAE1FEF14F021EF14F060
:10283E0022EF14F02E802E50D8B428EF14F02AEF89
:10284E0014F03EEF14F02E28D8A430EF14F032EF2F
:10285E0014F03AEF14F0000E1A6E000E1B6E000EFE
:10286E001C6E000E1D6E1C8E1D6A46EF14F0000EBF
:10287E001A6E000E1B6E000E1C6E000E1D6E1A5090
:10288E001B101C101D10D8A44FEF14F051EF14F0B4
:10289E0069EF14F0000E166E000E176E000E186E15
:1028AE00000E196E800E18127F0E19122650191274
:1028BE0016C016F017C017F018C018F019C019F08E
:1028CE00A9EF15F02D50D8A46FEF14F071EF14F09E
:1028DE007BEF14F0000E166E000E176E000E186EC3
:1028EE00000E196EA9EF15F02E502DC01EF01F6AA6
:1028FE001E5E000E1F5A7F0E1E24276E000E1F2016
:10290E00286E16C022F017C023F018C024F019C08C
:10291E0025F0000E166E000E176E000E186E000ECD
:10292E00196E000E296E000E2A6E000E2B6E000E12
:10293E002C6E2E6ADBEF14F02E50D8B4A9EF14F0E3
:10294E00ABEF14F0C2EF14F0D890223623362436B3
:10295E002536D89016361736183619362CAEBAEFED
:10296E0014F0BCEF14F0BDEF14F01680D890293699
:10297E002A362B362C361A50225C1B5023581C50EC
:10298E0024581D502558D8A0CFEF14F0D1EF14F0D5
:10299E00DAEF14F02C8C1A50225E1B50235A1C5066
:1029AE00245A1D50255A2E2A190E2E64E1EF14F0CA
:1029BE00E3EF14F0A3EF14F022502310241025108F
:1029CE00D8B4ECEF14F0EEEF14F006EF15F029800A
:1029DE0006EF15F0D89016361736183619362CAE77
:1029EE00FBEF14F0FDEF14F0FEEF14F01680D8900C
:1029FE0029362A362B362C362706D8A0280618AEAE
:102A0E000BEF15F00DEF15F0F1EF14F02E6A2CAE62
:102A1E0013EF15F015EF15F039EF15F0FF0E291421
:102A2E001E6EFF0E2A141F6EFF0E2B14206E7F0ECD
:102A3E002C14216E1E501F1020102110D8B42AEF16
:102A4E0015F02CEF15F030EF15F0010E2E6E39EF5C
:102A5E0015F016A035EF15F037EF15F039EF15F02C
:102A6E002CEF15F02E50D8B43FEF15F041EF15F0C6
:102A7E0065EF15F0010E1626000E172218221922E8
:102A8E0019A04CEF15F04EEF15F065EF15F016C0CE
:102A9E001EF017C01FF018C020F019C021F021340D
:102AAE00213220321F321E321EC016F01FC017F008
:102ABE0020C018F021C019F0274A282A28BE70EF2E
:102ACE0015F0285008E12728D8A070EF15F072EF06
:102ADE0015F07DEF15F0000E286E2768000E166EAD
:102AEE00000E176E000E186E000E196E28BE8AEFBD
:102AFE0015F0285006E12704D8B088EF15F08AEFBC
:102B0E0015F097EF15F0000E286E000E276E000ED2
:102B1E00166E000E176E000E186E000E196E266AD7
:102B2E0027C02DF02DA09EEF15F0A0EF15F0A3EF0E
:102B3E0015F0188EA4EF15F0189ED8902D30196E42
:102B4E005DEF14F012005950D8A4B0EF15F0B2EFAB
:102B5E0015F0EEEF15F0010E596E586AE70E036E82
:102B6E002F0E046E840E056EACEC0BF00001B75107
:102B7E000A0DF3CF0AF0F4CF0BF0B8510A26000E6F
:102B8E000B22F00E0A24476EFD0E0B20486EBA5132
:102B9E000A0DF3CF0AF0F4CF0BF0BB510A26000E4C
:102BAE000B22F00E0A24456EFD0E0B20466EBD5113
:102BBE000A0DF3CF0AF0F4CF0BF0BE510A26000E29
:102BCE000B22F00E0A24436EFD0E0B20446E58505D
:102BDE00D8A4F4EF15F0F6EF15F062EF16F0010E33
:102BEE00586EC40E086E47C001F048C002F0000EC9
:102BFE00046E0A0E036E1CEC0CF00150300FC8EC84
:102C0E0009F0C50E086E47C001F048C002F0000E74
:102C1E00046E0A0E036E7AEC0BF00150300FC8EC06
:102C2E0009F0C60E086E3A0EC8EC09F0C70E086E13
:102C3E0045C001F046C002F0000E046E0A0E036E8F
:102C4E001CEC0CF00150300FC8EC09F0C80E086EE9
:102C5E0045C001F046C002F0000E046E0A0E036E6F
:102C6E007AEC0BF00150300FC8EC09F0C90E086E6B
:102C7E003A0EC8EC09F0CA0E086E43C001F044C00B
:102C8E0002F0000E046E0A0E036E1CEC0CF00150E6
:102C9E00300FC8EC09F0CB0E086E43C001F044C0F3
:102CAE0002F0000E046E0A0E036E7AEC0BF0015069
:102CBE00300FC8EC09F0010EE2EC0BF05C6E5C0418
:102CCE00D8A46CEF16F06EEF16F0BDEF16F0415073
:102CDE004210D8A475EF16F077EF16F088EF16F0C5
:102CEE00474A482A485009E1180E475CD8A082EF9F
:102CFE0016F084EF16F088EF16F0000E486E000EF8
:102D0E00476E41044210D8A48FEF16F091EF16F0E3
:102D1E00A2EF16F0454A462A465009E13C0E455CA4
:102D2E00D8A09CEF16F09EEF16F0A2EF16F0000E54
:102D3E00466E000E456E020E41184210D8A4AAEF40
:102D4E0016F0ACEF16F0BDEF16F0434A442A44508D
:102D5E0009E13C0E435CD8A0B7EF16F0B9EF16F0C0
:102D6E00BDEF16F0000E446E000E436E020E5C18A0
:102D7E00D8A4C4EF16F0C6EF16F0D7EF16F0414AFE
:102D8E00422A425009E1030E415CD8A0D1EF16F061
:102D9E00D3EF16F0D7EF16F0000E426E000E416E16
:102DAE000B0E5C18D8A4DEEF16F0E0EF16F043EF32
:102DBE0017F047C001F048C002F0000E046E0A0E74
:102DCE00036E7AEC0BF001C00AF002C00BF047C0A4
:102DDE0001F048C002F0000E046E0A0E036E1CECE9
:102DEE000CF00138F00B0A10086E020EFAEC09F026
:102DFE0045C001F046C002F0000E046E0A0E036ECE
:102E0E007AEC0BF001C00AF002C00BF045C001F0E5
:102E1E0046C002F0000E046E0A0E036E1CEC0CF09F
:102E2E000138F00B0A10086E010EFAEC09F043C0DF
:102E3E0001F044C002F0000E046E0A0E036E7AEC2E
:102E4E000BF001C00AF002C00BF043C001F044C009
:102E5E0002F0000E046E0A0E036E1CEC0CF001382C
:102E6E00F00B0A10086E000EFAEC09F0000E016E5F
:102E7E00010E43EC0AF0546A0C0E5C18D8A44AEF0B
:102E8E0017F04CEF17F052EF17F0000E016E010E17
:102E9E0043EC0AF0546A41504210D8A459EF17F08F
:102EAE005BEF17F07CEF17F0572A640E5718D8A473
:102EBE0063EF17F065EF17F071EF17F0C40E086EA1
:102ECE00FF0EC8EC09F0C50E086EFF0EC8EC09F037
:102EDE007CEF17F0C80E5718D8A478EF17F07AEFDA
:102EEE0017F07CEF17F0586A576A41044210D8A4C5
:102EFE0083EF17F085EF17F0A6EF17F0562A640E42
:102F0E005618D8A48DEF17F08FEF17F09BEF17F030
:102F1E00C70E086EFF0EC8EC09F0C80E086EFF0E45
:102F2E00C8EC09F0A6EF17F0C80E5618D8A4A2EFF9
:102F3E0017F0A4EF17F0A6EF17F0586A566A020EB4
:102F4E0041184210D8A4AEEF17F0B0EF17F0D1EF42
:102F5E0017F0552A640E5518D8A4B8EF17F0BAEF2B
:102F6E0017F0C6EF17F0CA0E086EFF0EC8EC09F088
:102F7E00CB0E086EFF0EC8EC09F0D1EF17F0C80E9D
:102F8E005518D8A4CDEF17F0CFEF17F0D1EF17F0FB
:102F9E00586A556A12000054494D452020202020C1
:102FAE0045562053500A0D00446F776E6C6F616466
:102FBE00696E672E2E2E004E4F2044415441202123
:102FCE000A0D00436C656172696E672E2E2E004EDF
:102FDE004F204441544120210048483A4D4D3A5328
:102FEE00530054494D450053500045560000C3EF61
:032FFE000AF001D5
:020000040020DA
:08000000FFFFFFFFFFFFFFFF00
:020000040030CA
:0E000000FF071F1FFF8285FF0FC00FE00F409C
:00000001FF
